:020000040800F2
:1000000008030020990100089D0100089F010008D5
:10001000A1010008A3010008A501000800000000DC
:10002000000000000000000000000000A701000820
:10003000A901000800000000AB010008AD010008A4
:10004000AF010008AF010008AF01000893180008D5
:10005000AF010008AF01000881100008AD100008D2
:100060001F110008AF010008AF010008AF01000830
:10007000AF010008AF010008AF010008AF010008A0
:10008000AF010008AF010008AF010008AF01000890
:10009000AF010008AF010008AF010008AF01000880
:1000A000AF010008AF010008AF010008AF01000870
:1000B000AF010008D1110008AF010008AF0100082E
:1000C000AF010008AF010008AF010008AF01000850
:1000D000AF010008F70C0008AF010008AF010008ED
:1000E000AF010008AF010008AF01000800F002F8FE
:1000F00000F041F80AA090E8000C82448344AAF181
:100100000107DA4501D100F036F8AFF2090EBAE87E
:100110000F0013F0010F18BFFB1A43F0010318473B
:100120007C2000009C200000103A24BF78C878C1D1
:10013000FAD8520724BF30C830C144BF04680C60ED
:10014000704700000023002400250026103A28BF35
:1001500078C1FBD8520728BF30C148BF0B60704739
:10016000642901F04384002070471FB501F061FF4E
:100170001FBD10B510BD01F00BFD1146FFF7F5FFD7
:1001800000F024F801F029FD03B4FFF7F2FF03BCEF
:1001900000F0A4FD30BF000008480047FEE7FEE77E
:1001A000FEE7FEE7FEE7FEE7FEE7FEE7FEE7FEE727
:1001B00003480449024A044B70470000ED00000860
:1001C00008010020080300200801002008B50024D1
:1001D0000025062000F01DFD482000F0ABFB4FF489
:1001E0001651482000F0C1FD00F046FE0020FF49F6
:1001F000086000BF08E00A21284600F08CFEB42009
:1002000000F0AEFB681CC5B2082DF4DB00F0E6FE82
:1002100001F077FA7EE300F0F5FE0446F44800783A
:100220000A2190FBF1F0C6B23146002000F073FEC7
:10023000012000F095FBEE4800780A2190FBF1F2D6
:1002400001FB1200C6B23146012000F064FE01201D
:1002500000F086FB0A21022000F05DFE012000F084
:100260007FFBE34840780A2190FBF1F0C6B23146AB
:10027000032000F050FE012000F072FBDC484078C3
:100280000A2190FBF1F201FB1200C6B231460420B4
:1002900000F041FE012000F063FB0A21052000F080
:1002A0003AFE012000F05CFBD14880780A2190FBE7
:1002B000F1F0C6B23146062000F02DFE012000F01C
:1002C0004FFBCB4880780A2190FBF1F201FB120032
:1002D000C6B23146072000F01EFE012000F040FBB0
:1002E000032C72D1EAE000F08DFE0446C14800689C
:1002F0000A2190FBF1F0C6B23146002000F00BFE5F
:10030000012000F02DFBBB4800680A2190FBF1F2B0
:1003100001FB1200C6B23146012000F0FCFD0120B5
:1003200000F01EFB0A21022000F0F5FD012000F084
:1003300017FBB14800680A2190FBF1F0C6B23146C4
:10034000032000F0E8FD012000F00AFBAA48006845
:100350000A2190FBF1F201FB1200C6B231460420E3
:1003600000F0D9FD012000F0FBFA0A21052000F081
:10037000D2FD012000F0F4FAA04800680A2190FBA9
:10038000F1F0C6B23146062000F0C5FD012000F0B4
:10039000E7FA9A4800680A2190FBF1F201FB12008B
:1003A000C6B23146072000F0B6FD012000F0D8FAB1
:1003B000032C7ED1002601209149086041F61F419F
:1003C00042F2107000F073FF77E078E000F01AFE60
:1003D0000446884800680A2190FBF1F0C7B239460C
:1003E000002000F098FD012000F0BAFA8148006872
:1003F0000A2190FBF1F201FB1200C7B2394601203D
:1004000000F089FD012000F0ABFA0A21022000F083
:1004100082FD012000F0A4FA774800680A2190FBD1
:10042000F1F0C7B23946032000F075FD012000F05D
:1004300097FA714800680A2190FBF1F201FB120063
:10044000C7B23946042000F066FD012000F088FAAA
:100450000A21052000F05FFD012000F081FA6748C5
:1004600000680A2190FBF1F0C7B23946062000F07F
:1004700052FD012000F074FA604800680A2190FBE8
:10048000F1F201FB1200C7B23946072000F043FD2C
:10049000012000F065FA012C0FD158480368701C48
:1004A000C0B20646014654480093036851480268AA
:1004B00000E003E053A001F057FA87E713E7022CAE
:1004C00070D100F038FEF6E000F09CFD0446544880
:1004D00000680A2190FBF1F0C6B23146002000F01E
:1004E0001AFD012000F03CFA4D4800680A2190FBFB
:1004F000F1F201FB1200C6B23146012000F00BFD03
:10050000012000F02DFA0A21022000F004FD012054
:1005100000F026FA434800680A2190FBF1F0C6B2C9
:100520003146032000F0F7FC012000F019FA3D48A5
:1005300000680A2190FBF1F201FB1200C6B23146BD
:10054000042000F0E8FC012000F00AFA0A2105204E
:1005500000F0E1FC012000F003FA334800680A21B2
:1005600090FBF1F0C6B23146062000F0D4FC012029
:1005700000F0F6F92C4800680A2190FBF1F201FB2B
:100580001200C6B23146072000F0C5FC012000F081
:10059000E7F9012C7ED141F61F4142F2107000F0C4
:1005A00086FE87E088E000F02DFD1D4800680A21E6
:1005B00090FBF1F0C6B23146002000F0ACFC012007
:1005C00000F0CEF9164800680A2190FBF1F201FB19
:1005D0001200C6B23146012000F09DFC012000F05F
:1005E000BFF90A21022000F096FC1FE08C81214215
:1005F0009C0000204C0000205000002054000020EF
:1006000008000020B2B6BBF1B5BDB5DA2564B8F676
:10061000CAB1BCE4B5E325643A25643A25640A000E
:10062000400000204400002048000020012000F08D
:1006300097F9B94800680A2190FBF1F0C6B231463B
:10064000032000F068FC012000F08AF9B24800683D
:100650000A2190FBF1F201FB1200C6B231460420E0
:1006600000F059FC012000F07BF90A21052000F080
:1006700052FC012000F074F9A84800680A2190FBA0
:10068000F1F0C6B23146062000F045FC012000F032
:1006900067F900E00FE0A14800680A2190FBF1F241
:1006A00001FB1200C6B23146072000F034FC0120E5
:1006B00000F056F977E707E7012C7ED198480078DB
:1006C000984908609648407897490860944880782F
:1006D0009649086000F02FFD1AE100F093FC0446F3
:1006E000934800680A2190FBF1F0C6B23146002021
:1006F00000F011FC012000F033F98D4800680A2158
:1007000090FBF1F201FB1200C6B23146012000F06D
:1007100002FC012000F024F90A21022000F0FBFB7A
:10072000012000F01DF97C4800680A2190FBF1F0DF
:10073000C6B23146032000F0EEFB012000F010F9B4
:10074000754800680A2190FBF1F201FB1200C6B265
:100750003146042000F0DFFB012000F001F90A21FE
:10076000052000F0D8FB012000F0FAF86B48006883
:100770000A2190FBF1F0C6B23146062000F0CBFB17
:10078000012000F0EDF8654800680A2190FBF1F2C5
:1007900001FB1200C6B23146072000F0BCFB01206D
:1007A00000F0DEF8012C7DD15C4800685F490968E3
:1007B000401A0FD55848006800E0ABE0401E56498B
:1007C0000860564800683C3058490968401A534947
:1007D000086006E05148006854490968401A4F49CA
:1007E00008604D48006850490968401A0DD55048C6
:1007F0000068401E4E490860474800683C304A493E
:100800000968401A4449086006E0434800684649C0
:100810000968401A4049086045480068414909682C
:10082000401A00D575E0424800683E490968401A00
:100830003F49086041F61F4142F2107000F037FD59
:1008400065E000F0DFFB364800780A2190FBF1F00C
:10085000C6B23146002000F05EFB012000F080F8B7
:100860002F4800780A2190FBF1F201FB1200C6B27A
:100870003146012000F04FFB012000F071F80A2101
:10088000022000F048FB012000F06AF8244840787C
:100890000A2190FBF1F0C6B23146032000F03BFB89
:1008A000012000E034E000F05BF81D4840780A21A8
:1008B00090FBF1F201FB1200C6B23146042000F0B9
:1008C0002AFB012000F04CF80A21052000F023FB50
:1008D000012000F045F8124880780A2190FBF1F0E1
:1008E000C6B23146062000F016FB012000F038F8B1
:1008F0000B4880780A2190FBF1F201FB1200C6B28E
:100900003146072000F007FB012000F029F898E7A6
:10091000E3E600BF7FE40000440000204800002020
:100920009C0000200C00002010000020140000207B
:10093000400000204FF0E021096921F004014FF050
:10094000E0221161C21700EB5272D2101F4B1A70D5
:10095000194609784FF47A7251431D4A1180704745
:1009600001461B4A12884A434FF0E0235A61002295
:100970009A6101221A6100BF4FF0E022106910F065
:10098000010F02D010F4803FF6D000224FF0E02398
:100990001A619A61704701460C4A12784A434FF037
:1009A000E0235A6100229A6101221A6100BF4FF0D0
:1009B000E022106910F0010F02D010F4803FF6D051
:1009C00000224FF0E0231A619A617047180000205E
:1009D0001A000020AF4A0A400243AF4B1A6070472A
:1009E0000146072323EA01021202AC4B18684FF6B6
:1009F000FF0300EA0300AA4B40EA030040EA0200BA
:100A00004FF0E023C3F80C0D70472DE9F047804606
:100A1000894614461D462046E11704EB91714FEAC2
:100A2000A10AE11704EB91718910A4EB8101CFB207
:100A3000042000EBC700C7B22846FFF7D1FFC5F17D
:100A4000040008FA00F60F20284100EA09000643D6
:100A500006F00F06202C0CDA924800684FF00101D6
:100A600001FA04F140EA01004FF0E021C1F8000171
:100A70000DE08D480068A4F120014FF0010202FA58
:100A800001F240EA02004FF0E021C1F8040187487A
:100A900050F82A0006FA07F10843844941F82A0071
:100AA000BDE8F08770B504460B46CE1701EB96768D
:100AB000B010CE1701EB9676B610A1EB8606B606FF
:100AC000350E7B4B9B6943F00103794EB3614FEACE
:100AD000B63353F820300F26AE40B343754E46F878
:100AE0002030334653F8203004FA05F63343714E74
:100AF00046F82030704B1E684FF0010303FA01F3F3
:100B000046EA03066D4BC3F8006412F0010F0AD0E9
:100B10006B4B1B684FF0010606FA01F643EA060329
:100B2000664EC6F80C3412F0020F0AD0654B1B68F3
:100B30004FF0010606FA01F643EA06035F4EC6F8D7
:100B4000083470BD00B5002059490861C860142000
:100B5000486100208861C8610846006840F00100D3
:100B600008600846406858490840514948600846AE
:100B70000068564908404E4908600846006820F45D
:100B8000802008600846406820F4FE00486000208D
:100B9000886000214FF00060FFF71CFF00BD10B51A
:100BA0004B48006840F004004FF0E021C1F8100D00
:100BB0003F48C06940F080503D49C86145484068A1
:100BC00040F48070434948600846006840F00400E3
:100BD00008600846006840F002000860FFF7DAFA93
:100BE00010BD2F48001D2D49086070470146490679
:100BF0002F4A926942F001022D4B9A612F4A5268A6
:100C000022F0E0622D4B5A601A4652680A435A603D
:100C1000704730B504460025FFF794FF244800686C
:100C200040F480302249086000BF21480068400C31
:100C3000FBD04FF480601E494860A01EC4B2084635
:100C4000406840EA844048600846406840F480308C
:100C500048602148006840F032001F49086014488D
:100C6000006840F080701249086000BF10480068BA
:100C7000400EFBD00E48406840F002000C4948602E
:100C800005E00B484068C0F3870505F00305022D19
:100C9000F7D130BD80FFFF1F08ED00E00CED00E054
:100CA0000000FA0500E100E004E100E000E400E0FB
:100CB0000010024008000140000401400000014013
:100CC0000C040140080401400000FFF8FFFFF6FE9D
:100CD00010ED00E00070004000200240014600BF1F
:100CE000704700BF5A4A128812F0400FFAD0C2B2C1
:100CF000584B1A8070475649098811F0200F33D09D
:100D000054490988C8B25449097811F0800F2BD191
:100D10005149097811F0400F0CD00A2803D0002166
:100D20004D4A117020E04C49097841F080014A4A4F
:100D3000117019E00D2806D14749097841F04001AA
:100D4000454A117010E04449097801F03F01434AD7
:100D5000505441490978491C3F4A1170114609789D
:100D60003F2901DD0021117070472DE9F05F054634
:100D70000E46300101F082F88146394905FB01F049
:100D800001F07CF88246494600F096FF0746384657
:100D900001F054F884B2204601F070F883463946D9
:100DA00001F053F982464FF0834101F07BF8814610
:100DB00001F044F88046240104EB080084B229487D
:100DC000806940F00400274988610846806940F442
:100DD000804088612448006820F47F602349C1F87E
:100DE00004080846D0F8040840F40B60C1F8040871
:100DF0001C48C06840F480401A49C8600846C06872
:100E000020F48040C8601A48A0F8084819480088B3
:100E100042F20C0140EA01001549A1F80C0808460D
:100E2000B0F80C0840F48070A1F80C080846B0F83F
:100E30000C0840F020000F4908804FF002034FF0EB
:100E400025024FF003010846FFF7DFFDBDE8F09FE4
:100E500000380140043801401C0000205C000020E4
:100E600040420F0000100240040801400000014011
:100E7000003001400C3801404E48806940F00100CC
:100E80004C4988610846806940F00800886108463E
:100E9000806940F0400088614748406840F0007039
:100EA00045494860454800686FF30F00C1F8000CE1
:100EB0004248006843F2333140EA01003E49C1F83C
:100EC000000C0846D0F80C0C40F0FF00C1F80C0CE8
:100ED0003B48D0F804084FF000003949C1F8040835
:100EE0000846D0F8040840F03330C1F8040835480B
:100EF0000068C1F80C0870473249096821F47F4145
:100F00002F4AC2F80C181146D1F80C1841EA0021FA
:100F1000C2F80C18704730B503460C46184603EB70
:100F2000D3714910A3EB4101274A1160194603EB25
:100F3000D3724FEA620000EBD0724FEA6202A0EB7C
:100F40004202224DC5F8842118464FEAE37103EBB3
:100F500091714FEAA1011E4A11601E49085DFFF719
:100F6000CBFF30BD30B503460C46184603EBD371BA
:100F70004910A3EB4101144A1160194603EBD372E7
:100F80004FEA620000EBD0724FEA6202A0EB42022D
:100F90000E4DC5F8842118464FEAE37103EB9171B9
:100FA0004FEAA1010A4A11600B49085DFFF7A4FF4F
:100FB00030BD00000010024000000140000C014064
:100FC000001001400C180140808121420080214224
:100FD00088812142240000202F00002022488069BF
:100FE00040F0100020498861204800686FF30B0032
:100FF0001E4908600846006840F6880108431B49FE
:101000000860704710B51A480078E8B119480068C0
:1010100028B11948006810B118480068A0B90A2022
:10102000FFF79EFC0020124908701248006808B9BA
:10103000012010BD1048006808B90220F9E70F48E8
:10104000006878B90320F4E70A480068012809D14C
:1010500009480068012805D108480068012801D125
:10106000034908700020E4E700100240001001402E
:1010700039000020080122420401224200012242DC
:1010800010B50A20FFF76CFC4648006850B9464886
:101090000068401E4449086008460068002801DADC
:1010A0000220086001204149086010BD10B50A20E7
:1010B000FFF756FC3E48006868BB3B4800680228C2
:1010C0000BD13C480068401C3A490860084600685B
:1010D0003B2820DD002008601DE03348006801281F
:1010E0000BD135480068401C334908600846006849
:1010F0003B2810DD002008600DE02B48006850B947
:101100002E480068401C2D490860084600681728D2
:1011100001DD0020086002202449086010BD10B5E0
:101120000A20FFF71DFC264800684FF004002549FF
:10113000C1F8140410BD10B52348806940F01000B8
:1011400021498861214800686FF30B001F4908603E
:101150000846006840F6880108431C4908600122DF
:1011600000210220FFF79EFC012211460220FFF71A
:1011700099FC012202210846FFF794FC0223062273
:1011800019461846FFF741FC0223072201211846A1
:10119000FFF73BFC0223082200211846FFF735FC2D
:1011A00010BD0000000122423C0000201404014058
:1011B000040122424800002044000020400000209A
:1011C00008012242000001400010024000100140CE
:1011D00010B54F48008810F0010F5FD00A20FFF7CC
:1011E000BFFB4C48006808B34B480068401C4A49A4
:1011F0000860084600683B2850DD0020086047482A
:101200000068401C45490860084600683B2845DDE9
:101210000020086042480068401C414908600846B8
:10122000006817283ADD0020086037E03D48006874
:10123000401E3C4908600846006800282EDA3B2022
:10124000086039480068401E374908600846006851
:10125000002823DA3B20086034480068401E3349E8
:10126000086008460068002818DA01203049086044
:1012700000F03CFB11E02F48006808B9012000E0B5
:1012800000202C4908604FF00A00FFF769FB2A484C
:10129000D0F89401C04329490860ECE71C48008855
:1012A00020F001004FF08041A1F8100410BD70B58E
:1012B00004460D462248C06940F002002049C8613A
:1012C000204804804FF08040A0F82854B0F80C0467
:1012D00040F001004FF08041A1F80C040846B0F83E
:1012E0000C0440F04000A1F80C040846B0F80004DB
:1012F00040F00100A1F800044FF002034FF01D027E
:101300004FF003014FF00100FFF77FFB70BD0000BD
:10131000100400400800002054000020500000206D
:101320004C00002048000020440000204000002025
:101330008C812142B40123420000234294012342C4
:10134000001002402C040040F0B503460C46154640
:10135000642093FBF0F0C6B2642093FBF0F700FB2F
:101360001730C1B2132E02DD01F16400C1B208468C
:10137000CF1701EB977701EBA702072092FBF0F75D
:1013800000FB172082B25719601EDFF86CC41CF8EE
:101390000000384482B2CF1701EB9777BF10B1EB52
:1013A000870703D1032C01DA501E82B2072092FB7B
:1013B000F0F700FB1720C0B2F0BD0146CA1701EBE1
:1013C00092729210B1EB820212D1642091FBF0F282
:1013D00000FB121050B94FF4C87091FBF0F200FB03
:1013E000121008B9012070470020FCE70120FAE73D
:1013F0000020F8E770B5002600240025FF48068885
:101400004FEA0646FE48B0F81C080644FD48B6FB05
:10141000F0F4FD480088A0423AD0FB490C8040F22D
:10142000B2750EE02846FFF7C8FF30B1B4F5B77FBC
:1014300002D3A4F5B77402E006E0A4F26D14681CB0
:1014400085B2B4F5B67FEDD800BFF04885800025A1
:1014500016E0EE498888FFF7B0FF30B1012D04D1C6
:101460001D2C01D91D3C09E00CE0E948405DA0427B
:1014700003D8E748405D241A00E003E0681C85B209
:101480001C2CE6D200BF681CE0498871601CC87142
:10149000DC48B6FBF0F100FB11644FF46160B4FB73
:1014A000F0F0DA4908704FF46160B4FBF0F100FB32
:1014B00011403C21B0FBF1F0D44948704FF4616019
:1014C000B4FBF0F100FB11403C21B0FBF1F201FB59
:1014D0001200CE4988700B46DA7999799888FFF71F
:1014E00033FFCA490872002070BD2DE9F047054658
:1014F0000E4617469846DDE9089A002340F2B2707E
:10150000854203DB40F63300854202DD0120BDE861
:10151000F08740F2B2740AE02046FFF74EFF10B1A8
:10152000BC48034401E0BC480344601C84B2AC42A4
:10153000F2DB701EC6B2002410E0B548005D40F238
:10154000A321484303EBC0132846FFF736FF18B129
:10155000012C01D1AB480344601C84B2B442ECDBE3
:10156000781E40F2A321484303EBC013C8EB481098
:10157000C0EB082003EB0013C9EB091003EB800359
:101580005344A648C06940F08050A449C861084649
:10159000C06940F00060C861A148006840F48070F4
:1015A0009F4908609F48008840F010009449A1F8C6
:1015B00004089D490B804FEA13409149A1F818088F
:1015C0000846B0F8040820F01000A1F8040800BF95
:1015D0009448008810F0200FFAD0002097E770B5EB
:1015E0000346002409E013F8015B11F8016BB542D2
:1015F00001D0002070BD601CC4B29442F3DB012016
:10160000F8E72DE9FE47002406E088480068005D01
:1016100002A90855601CC4B2032CF6DB00240BE0C1
:1016200004EB4401824A8818032202A9FFF7D7FF7E
:1016300000B103E0601CC4B20C2CF1DB00BF601CE5
:10164000C6B27A4800680079202805D1774800683A
:1016500040793038C5B20BE074480068417973486E
:101660000068007930380A2202FB00103038C5B219
:101670006E480068C07930384FF47A7148436B493E
:101680000968097A3039642202FB01016748006861
:10169000407A30380A2202FB001064490968897ACE
:1016A0000844303887B26348006841786148006870
:1016B0000078303802FB0010303800F0FF0A5D4837
:1016C000006801795B480068C078303802FB001080
:1016D000303800F0FF0957480068C1795548006864
:1016E0008079303802FB0010303800F0FF08534694
:1016F0002A4631463846CDE90098FFF7F6FEBDE8A8
:10170000FE8710B500244C480088A0F5A041503950
:1017100071D04248C06940F080504049C8610846D5
:10172000C06940F00060C8613D48006840F48070C6
:101730003B4908603948006A40F480303749086204
:101740000846006A20F4803008620846006A40F0CB
:101750000100086204E0601CC4B20A20FFF700F92F
:101760002E48006A10F0020F01D1FA2CF3DBFA2C9C
:1017700001DB012010BD2948006A40F48070274930
:1017800008620846006A40F40040086200BF25482D
:10179000008810F0200FFAD000BF2248008810F017
:1017A000080FFAD02548008840F001001449A1F83C
:1017B000000800BF1B48008810F0200FFAD019481D
:1017C000008840F010000E49A1F804084FF0000016
:1017D0001B49088047F6FF700949A1F80C08FFF77C
:1017E00010FF0748B0F8040820F010000449A1F8E1
:1017F000040800BF26E02FE04A2100081828004016
:101800000020004080510100580000209C00002072
:10181000562100080085E2018033E10100100240FA
:1018200000700040042800401C28004000000020F8
:101830006221000804000020046C004000280040E1
:10184000082800402548008810F0200FD2D045F22B
:1018500050002349088012E000BF2048008810F0A3
:10186000080FFAD01F48008840F001001E49A1F877
:10187000000800BF1948008810F0200FFAD002239A
:10188000032200210846FFF7C0F8FFF7B3FD002050
:1018900070E700B51148008810F0010F01D0FFF784
:1018A000A9FD0E48008810F0020F06D00B480088F2
:1018B00020F002000C49A1F804080848008840F60E
:1018C000FA7100EA01000849A1F8040800BF0348C2
:1018D000008810F0200FFAD000BD0000042800405E
:1018E000046C004000280040002000401948806936
:1018F00040F04000174988611748006820F47000E4
:101900001649C1F800080846D0F8000840F4401015
:10191000C1F8000812480068C1F80C08704730B5DB
:1019200001460A46CD1701EB15752B11CD1701EBBA
:1019300015752D11A1EB0515ECB2012B01D100207D
:1019400004E0022B01D1072000E00E200219521EF4
:10195000D0B230BD0010024000180140001001401C
:101960000C180140704700000FB4044910B503AAD9
:10197000029800F0D3F810BC5DF814FB20000020A2
:101980002DE9F04104460E4600200AE0E1682046B9
:10199000884738B3252806D0D4E901219047206A2A
:1019A000401C2062F2E7E1682046002788470500D6
:1019B00018D0A5F14100192802D820354FF400674E
:1019C0003246294620462760FEF7CAFB40B101286F
:1019D00004D0F61D26F007060836D7E7361DD5E7F2
:1019E0002846D9E7206ABDE8F08100002DE9F041E2
:1019F0008046002610687529414615A512D0AFF320
:101A00000080002803DAC0F1000012A508E0D8F831
:101A100000108A0701D510A502E0490704D50FA5DB
:101A2000012601E0AFF30080002408F1240704E060
:101A300000F086F830313955641C0028F8D133465F
:101A40002A4621464046BDE8F04100F00DB80000AE
:101A5000000000002D0000002B000000200000000E
:101A600070477047704770472DE9F0470D460446B0
:101A70009246994600F124080168880604D5E06979
:101A800021F01001216000E001200027A84201DDC3
:101A9000A0EB0507A16907EB050202EB0300A1EB30
:101AA0000000A0612068C00602D42046AFF3008089
:101AB000002608E0D4E901211AF806009047206AC0
:101AC000401C761C20624E45F4DB2068C0060AD517
:101AD0002046AFF3008006E0D4E901213020904792
:101AE000206A401C2062381EA7F10107F4DC07E0E1
:101AF000D4E9012118F805009047206A401C2062B3
:101B0000281EA5F10105F3DC2046AFF30080216813
:101B10000220090600D40120BDE8F087074B70B50C
:101B20000C467B4400F019F80546204600F028F8E2
:101B300010B14FF0FF3070BD284670BDBDF1FFFF02
:101B40004FF00A01B0FBF1F202FB110110467047A1
:101B500001694A1C02610878704700B58FB0CDE971
:101B600001310021059105497944CDE90310114661
:101B70006846FFF705FF0FB000BD0000E5FFFFFF5F
:101B8000C06800F08000704700487047A80000203F
:101B90007546FFF7F9FFAE4605006946534620F04B
:101BA0000700854618B020B5FEF702FBBDE82040CF
:101BB0004FF000064FF000074FF000084FF0000B09
:101BC00021F00701AC46ACE8C009ACE8C009ACE8BC
:101BD000C009ACE8C0098D4670470446AFF30080E9
:101BE0002046FEF7D1FA000001487047704700BF59
:101BF000AC00002090EA010F48BF81F0004100F1E5
:101C00003682421A3CBF801A89184FEAD0524FF0F0
:101C10007F4C1CEA410FA2EBD15318BF9CEA026F24
:101C200000F03B804FF0004C4CEA00204CEA0121D0
:101C300021FA03FC10EB0C0C1ED202F1FF325FEA1A
:101C40001C2040EBC25038BF70471CF07F0F4FEA9A
:101C5000400C18BFBCF17F4F38BF7047C3F1200361
:101C6000994008BF20F00100BCF17F4F38BF70479A
:101C7000A0F1C04000F0E4B94FEA3C00000A40EB9C
:101C8000C25028BF1CF0FF0F4FEA400CE6D018BF2F
:101C9000BCF17F4F38BF7047EAE79CEA026F05D07E
:101CA00010EA5C0F08BF00F00040704710B500F06C
:101CB0007AF900BF64FBBE3E4FF47F0C1CEAD012E1
:101CC0001EBF1CEAD11392EA0C0F93EA0C0F00F02E
:101CD000858090EA010F48BF42F4807240F4000C06
:101CE00041F400002CF07F4120F07F4000B581429C
:101CF000A2EB03020FF2081CACEB504EC0F1000047
:101D00009EF800E04FEA4E0E00FB0EFC38BF490083
:101D10004FEA2C1C02F5FA020CFB0EF34FEACE1E22
:101D20004FEA112C4FEAC1210EEB635E42EB2242D7
:101D30000EFB0CFC4FEA1C5300FB03114FEA112C65
:101D40004FEA01310EFB0CFC4FEADC4C00FB0C119E
:101D5000C14228BF09184CEB03335DF804EB10EBCC
:101D6000410143EBC250B2F57C0F38BF704729D513
:101D700012F0F00F1CBF00F1C04000F000407047AF
:101D8000008182838485868788898B8C8D8E8F9154
:101D90009293959697999A9C9D9FA0A2A3A5A7A878
:101DA000AAACAEB0B2B3B5B7B9BCBEC0C2C5C7C9A4
:101DB000CCCED1D4D7D9DCDFE2E6E9ECF0F3F7FA08
:101DC000FE0000004FEA400C0CF1807CBCF17E4F1D
:101DD00028BF7047B0F1C04000F032B990EA010F5F
:101DE0000CEAD11348BF42F48072624538BF6345A4
:101DF00007D213F47F0F16D080EA010000F00040F4
:101E0000704710B500F0CFF8097EFC3E00F005B831
:101E100080EA010000F00040704780EA010000F015
:101E2000004000F00DB912F47F0F04BF0248704764
:101E300080EA010000F004B90000C07FC10DD1F1BB
:101E40009E0206DB4FEA002343F0004323FA02F030
:101E50007047004207D54FEA4001B1F1FE4F02D270
:101E60004FF00000704710B500F09DF849922480B3
:101E7000002070476FEA200070470000B0FA80F33E
:101E800010FA03F2C3F19D030AD0D90501EB122029
:101E9000530638BF704700F1010008BF20F0010071
:101EA000704700004FF47F0C1CEAD0121EBF1CEAE2
:101EB000D11392EA0C0F93EA0C0F00F0478090EADE
:101EC000010F48BF42F480724FF0004C4CEA0020F2
:101ED0004CEA012102EB0302A0FB0113A2F5000270
:101EE000002918BF43F001035B0028BF4FEA33030A
:101EF00042EB22425FEA132C4CEBC2502EBFBCEBEC
:101F0000436FB2F57C0F70474FEA036CBCF1004F92
:101F100008BF20F00100B2F57C0F38BF70470BD529
:101F200082F0FF0212F5803FC8BF704700F1C04049
:101F3000D8BF00F00040704700F5000C5FEA4C0C81
:101F400048BF7047B0F1C04000F07AB890EA010F86
:101F50000CEAD11348BF42F48072624538BF634532
:101F600004D280EA010000F00040704710B500F094
:101F70001AF800BF8900013E00F007B800F009B868
:101F80005FEA410C5FEA1C6C08D080EA010000F0B7
:101F900057B85FEA400C5FEA1C6CF6D14FF0004086
:101FA000A0F5800070470EF1020E2EF0030E5EF8D1
:101FB000044B244204D44FEA4102B2F17F4F11D8BE
:101FC0004FEA4003B3F17F4F0CD80ED14FEAD07CDB
:101FD000B2F17F4F0CEB4C0C0CF1020C08BF4CEB38
:101FE000D17C04E04FF0080C01E04FEAD17C0CEB0F
:101FF0004C0324FA03F404F00704B4F1040C06D2F1
:102000000EEB840CBDE810404CF0010C6047DFE89B
:102010000CF0070802024FF00040A0F5800010BD50
:102020000846420018BFD2F1807288BF00F000401D
:1020300010BD10B5FFF7D8FD4FF00001016010BDD5
:10204000FF2141EAD050C005704780F0004090EA7F
:10205000010F7FF5D6AD81F0004100F008B8000017
:1020600090EA010F48BF81F000413FF5CAAD421A26
:1020700004D882F00042A0EB020011444FEAD05293
:102080004FF07F4C1CEA410FA2EBD15318BF9CEAE2
:10209000026F4AD04FF0004C4CEA00204CEA01217C
:1020A00021FA03FCB0EB0C0C0FD412F0FE0F36D06B
:1020B0005FEA4C001DD5001240EBC25038BF70479C
:1020C0001CF03F0F18BF70470BE0A2F101025FEA5E
:1020D0001C2040EBC25038BF70471CF07F0F18BF68
:1020E0007047C3F12003994014BF401E20F0010047
:1020F000704780084FEA122308BF7047B0FA80FC8F
:10210000A2EB0C02CCF1280C60FA0CF093EA122F2F
:1021100004BF00EBC25070474FEAC3707047130A08
:102120005FEADC1008BF7047F6E79CEA026F04D054
:1021300010EA5C0F08BF0020704710B5FFF733FFAF
:1021400040DFF63E81F000407047000303060104C3
:102150000602050003051F1C1F1E1F1E1F1F1E1F3A
:102160001E1F4A616E4665624D61724170724D611B
:10217000794A756E4A756C4175675365704F637423
:102180004E6F7644656331373A31333A3432004A20
:10219000756E20313020323031390000BC2100080A
:1021A000000000205C000000280100081822000840
:1021B0005C000020AC020000440100088F210008F0
:1021C0008621000800000000000000000000000060
:1021D00000000000000000000000000000000000FF
:1021E0003F065B4F666D7D077F6F40BF86DBCFE6A6
:1021F000EDFD87FFEF01000003000000000000007C
:1022000000000000000000000000000000000000CE
:082210000000000000000000C6
:04000005080000ED02
:00000001FF
